:020000040800F2
:10000000500900208901000857260008111B00082C
:10001000552600088F040008852B0008000000000A
:10002000000000000000000000000000752600082D
:1000300091040008000000006726000877260008E9
:10004000A3010008A3010008A3010008A301000800
:10005000A3010008A3010008A3010008A3010008F0
:1000600093040008A3010008A3010008A3010008ED
:10007000A3010008A3010008A3010008A3010008D0
:10008000A3010008A3010008A3010008A3010008C0
:10009000A3010008A3010008A301000899040008B7
:1000A000A3010008A3010008A3010008A3010008A0
:1000B000A3010008A3010008A3010008A301000890
:1000C000A3010008A3010008A3010008A301000880
:1000D000A3010008A3010008A3010008252B0008C4
:1000E000A3010008A3010008A301000800F002F822
:1000F00000F03AF80AA090E8000C82448344AAF188
:100100000107DA4501D100F02FF8AFF2090EBAE885
:100110000F0013F0010F18BFFB1A43F0010318473B
:100120004070000060700000103A24BF78C878C1A9
:10013000FAD8520724BF30C830C144BF04680C60ED
:10014000704700000023002400250026103A28BF35
:1001500078C1FBD8520728BF30C148BF0B60704739
:100160001FB51FBD10B510BD00F05CF91146FFF7BB
:10017000F7FF04F015F800F07AF903B4FFF7F2FF87
:1001800003BC00F07DF9000009488047094800479A
:10019000FEE7FEE7FEE7FEE7FEE7FEE7FEE7FEE737
:1001A000FEE7FEE704480549054A064B7047000094
:1001B000D9260008ED000008500300205009002057
:1001C000500500205005002010B54C1084EA53045F
:1001D00004D54042C1F1000138BF491E1B4204D57D
:1001E0005242C3F1000338BF5B1E00F06FF814F0F9
:1001F000804F04D04042C1F1000138BF491E14F0C5
:10020000004F04D05242C3F1000338BF5B1E10BD43
:1002100040EA010310B59B070FD1042A0DD310C883
:1002200008C9121F9C42F8D020BA19BA884201D9D5
:10023000012010BD4FF0FF3010BD1AB1D30703D01D
:10024000521C07E0002010BD10F8013B11F8014BD3
:100250001B1B07D110F8013B11F8014B1B1B01D1EF
:10026000921EF1D1184610BD02F0FF0343EA0322AB
:1002700042EA024200F0AEB84FF0000200B5134669
:1002800094469646203922BFA0E80C50A0E80C50B6
:10029000B1F12001BFF4F7AF090728BFA0E80C5067
:1002A00048BF0CC05DF804EB890028BF40F8042B60
:1002B00008BF704748BF20F8022B11F0804F18BFCD
:1002C00000F8012B704770477047704753EA020CE3
:1002D00000F069802DE9F04B4FF00006002B1FBFA6
:1002E000B3FA83F503FA05F424FA05F65E4012BF6B
:1002F0001643B2FA82F502FA05F4C5F120051EBFD5
:1003000022FA05FC44EA0C04203556EA044C4FEA74
:10031000144418BF641C4FF000084FF000099042CD
:1003200071EB030C39D3002919BFB1FA81F701FA37
:1003300007F6B0FA80F700FA07F6C7F120071EBFEC
:1003400020FA07FC46EA0C062037B6FBF4FCA7EBC4
:100350000507103F07F01F0BCBF120060CFA0BFB33
:100360002CFA06F644BFB3460026202FA4BF5E46F3
:100370004FF0000B5BEA060C08BF4FF0010B19EBC6
:100380000B09ABFB027C48EB0608C01B06FB02CC4A
:100390000BFB03CC71EB0C01C1E70B460246414657
:1003A0004846BDE8F08B13B54FF000004FF0000158
:1003B000AFF30080BDE81C40704710B500F02AF88C
:1003C000006810BD10B5044600F024F8046010BDAC
:1003D0004FF000020429C0F0128010F0030C3FF42B
:1003E0004DAFCCF1040CBCF1020F18BF00F8012B8B
:1003F000A8BF20F8022BA1EB0C01FFF73FBF5FEA7B
:10040000C17C24BF00F8012B00F8012B48BF00F885
:10041000012B704700487047F002002000487047E9
:10042000F00200207546FFF7F9FFAE460500694669
:10043000534620F00700854618B020B5FFF7B2FEFE
:10044000BDE820404FF000064FF000074FF00008D5
:100450004FF0000B21F00701AC46ACE8C009ACE856
:10046000C009ACE8C009ACE8C0098D46704710B5BA
:100470000446AFF300802046BDE81040FFF77DBE84
:1004800001491820ABBEFEE7260002007047FEE7D8
:100490007047042000F01CB9202000F019B972B692
:1004A000FEE700002DE9F35F05F005F9264D002277
:1004B0002B4605F02BF96FF00106324605F031FFAF
:1004C000224F00223B4604F033FFDFF884800022F5
:1004D000434604F02DFF04F03DFE05F0F1FBDFF88C
:1004E0007490DFF874B04A465B4605F00FF9DFF808
:1004F0006CA00022534605F009F904F02BFE184CBD
:100500006064019805F0D7F800222B4605F0FEF84C
:10051000324605F006FF00223B4604F009FF0022A8
:10052000434604F005FF04F015FE05F0C9FB4A46FA
:100530005B4605F0EBF80022534605F0E7F804F0BF
:1005400009FEA064BDE8FC9F0000694000003E4039
:1005500000002640F1D4C853FB21094000C05040A0
:10056000C000002010B590F821100022022905D00B
:100570000421816380F82020012010BD01680B68F0
:1005800023F00E030B6001680B6823F001030B607E
:1005900090F84030C46B012101FA03F3636080F8E6
:1005A000211080F82020104610BD000010B590F8F2
:1005B00021100024022903D00421816301243DE09D
:1005C00001680A6822F00E020A6001680A6822F0D7
:1005D00001020A601A4A0168914201D1012121E019
:1005E000174A1432914201D110211BE0144A2832DB
:1005F000914201D1891515E0114A3C32914201D155
:1006000089140FE00E4A5032914202D14FF48031EA
:1006100008E00B4A6432914202D14FF4801101E0AC
:100620004FF08071064A083A5160012180F821108C
:10063000002180F82010416B01B18847204610BD91
:100640000800024070B5044600F048F90546601CF9
:1006500002D004480078044400F040F9401BA04256
:10066000FAD370BD1401002010B5042805D020284D
:100670001BD1BDE8104001F063BB04210F4800F01E
:1006800023F90F4C012811D0204600F009FE206804
:10069000406A0C4C80B2208005F024F80A4A0B4BCB
:1006A00005F034F804F056FD606010BD21680020AC
:1006B0004862BDE81040024800F0CABD0008014091
:1006C00018020020380000209CC420B07268913FBE
:1006D000044910B50A68024202D00860FFF7C4FF5F
:1006E00010BD0000140401402DE9F84FDFF8B89167
:1006F0000024A9F1040B23460F2709F1040AABF1EA
:10070000040EC9E00125A5402A40AA427DD1674ECA
:10071000D1F804C0ACEB0608B44532D014DCBCF10F
:10072000030F3AD009DCBCF1000F2AD0BCF1010F55
:100730001CD0BCF1020F31D11DE0BCF1110F17D05C
:10074000BCF1120F2AD119E0B8F5881F19D006DCC8
:10075000B8F5803F15D0B8F5801F1FD111E0B8F56E
:10076000001F0ED0B8F5041F18D10AE0CB6815E0C1
:10077000CB681B1D12E0CB6808330FE0CB680C334D
:100780000CE08B682BB1012B4FF0080303D04561BF
:1007900004E0042302E0056100E00023FF2A01D801
:1007A000064601E000F104064FEA840501D9A5F1EF
:1007B0002005D6F8008007FA05FC28EA0C0803FAA1
:1007C00005F548EA0508C6F800804D68ED0062D5D9
:1007D000374DAE6946F00106AE61AD6924F00306FF
:1007E00005F001050095334D06EB050CDCF80850CB
:1007F000A607360F07FA06F825EA0805DFF8B880DD
:10080000404503D14FF0000817E044E0DFF8AC802A
:10081000404502D14FF001080FE0DFF8A4804045C9
:1008200002D14FF0020808E0DFF89880404502D17D
:100830004FF0030801E04FF0040808FA06F848EA10
:100840000508CCF808804D68D9F80060ED024D46E7
:1008500001D5164300E096432E604D68DAF800603B
:10086000AD02554601D5164300E096432E604D6813
:10087000DBF80060AD035D4601D5164300E096430A
:100880002E604D68DEF80060ED03754601D5164315
:1008900000E096432E60641C0D682A46E5407FF414
:1008A00031AFBDE8F88F00000804014000001110CE
:1008B000001002400000014000080140000C01400F
:1008C00000100140001401408068084000D0012061
:1008D00070470AB1016170470904FBE7014880686D
:1008E000704700001401002070B5040025D094F872
:1008F0003D00002520B984F83C50204600F0B8F8AF
:10090000242084F83D002068016821F00101016085
:100910002068016841F4004101602068016821F409
:100920000041016000F00AFA4D4A6168914201D825
:100930004C4900E04C49884201D2012070BD4B492E
:100940002368B0FBF1F15E6826F03F060E435E605F
:100950006368934206D94FF4967359434FF47A7300
:10096000B1FBF3F12368491C1E6A26F03F063143B0
:1009700019626168914210D84900401EB0FBF1F243
:10098000521CC2F30B02042A01D2042022E0B0FB65
:10099000F1F0401CC0F30B001CE0A268F2B301EBC5
:1009A000C10303EB0116431EB3FBF6F35B1C43F4D8
:1009B00080431B0549D092B301EBC10202EB011148
:1009C000401EB0FBF1F0401CC0F30B0040F480402F
:1009D00040F400402168CA694CF6FF739A43104303
:1009E000C861D4E9071001432068026822F0C00200
:1009F00011430160D4E9030101432068826848F291
:100A0000FF339A4311438160D4E90501084321680B
:100A1000CA6822F0FF021043C86001E00EE016E051
:100A20002068016841F0010101602564202084F8FC
:100A30003D00256384F83E50002070BD01EB410667
:100A4000431EB3FBF6F35B1CB3E70120C2E701EBE7
:100A50004101401EB0FBF1F0401CC0F30B00B7E7B2
:100A6000A086010080841E0000093D0040420F0066
:100A700010B586B0002100910191029103910068A8
:100A80001349884222D1134CA06940F00800A061AC
:100A9000A069694600F0080004904FF4407000908F
:100AA00012200190032003900B48FFF71DFE0B4816
:100AB000416841F0E06141F002014160E06940F4C9
:100AC0000010E061E06900F40010049006B010BD71
:100AD0000054004000100240000C014000000140A2
:100AE0000248816802781144816070471401002037
:100AF000074810B5016841F010010160032000F0C3
:100B000075F80F2000F006F800F024F8002010BD62
:100B10000020024070B50D4D04464FF47A712878DC
:100B2000B1FBF0F00A490968B1FBF0F000F0DCFA23
:100B300048B9102C07D200222146501E00F036F88A
:100B400000206C6070BD012070BD00001401002009
:100B5000200100200C4808B5816941F00101816144
:100B6000816901F001010091C16941F08051C161C9
:100B7000C06900F0805000900448416821F0E061B5
:100B800041F00071416008BD0010024000000140CA
:100B9000002809DB00F01F0201219140400980007C
:100BA00000F1E020C0F8001170470000F0B40E4BD7
:100BB0001B680C46C3F30223C3F10705042D00D9BB
:100BC0000425191D072901D2002300E0DB1E0126A0
:100BD00006FA05F1491E214099409E40761E1640B6
:100BE0003143F0BC01F0E3BF0CED00E0064900F03A
:100BF000070208684FF6FF03184040EA0220034A44
:100C000010430860704700000CED00E00000FA059A
:100C10002DE9F0470F46050061D0434E306800F0E3
:100C20000700B84209D2306820F00700384330602E
:100C3000306800F00700B84251D128683B4C81076A
:100C400012D5400703D5606840F4E0606060287802
:100C5000000703D5606840F4605060606068A96870
:100C600020F0F000084360602878C00728D068684A
:100C7000012810D02168022810D0890700292EDA17
:100C8000616821F0030101436160FFF727FE8046A0
:100C900041F288390DE021688903EFE78901EDE72A
:100CA000FFF71CFEA0EB0801494502D90320BDE86F
:100CB000F0876068696800F00C00B0EB810FEFD13D
:100CC000306800F00700B8420BD9306820F0070008
:100CD00038433060306800F00700B84201D001208E
:100CE000E5E72878400705D56068E96820F4E0600A
:100CF000084360602878000706D56068296920F4F9
:100D0000605040EAC100606000F038F86168084A4D
:100D1000C1F30311515CC8400649086006480068E9
:100D2000FFF7F8FE0020C2E700200240001002405A
:100D300054700008200100201801002004480549D3
:100D400000684968044AC1F30221515CC8407047F9
:100D5000200100200010024064700008044805498A
:100D600000684968044AC1F3C221515CC840704719
:100D70002001002000100240647000080E4A5168F3
:100D80000E4801F00C03042B11D0082B0FD10C4896
:100D9000C1F38343C903C05C0AD55168084AC1F353
:100DA0004041921E515C054A5043B0FBF1F0704740
:100DB00004494843704700000010024000127A00C6
:100DC0004470000800093D002DE9F84F040070D080
:100DD0002078C04DC00749D06868C0F38100012861
:100DE00007D06868C0F38100022809D16868C00391
:100DF00006D52868800339D560680028E7D035E03B
:100E00006068B0F5803F0BD010B1B0F5A02F11D0C5
:100E1000286820F480302860286820F4802002E0D0
:100E2000286840F480302860606890B1FFF756FD74
:100E300006460AE0286840F480202860F0E700BFFA
:100E4000FFF74CFD801B642873D828688003F7D512
:100E50000CE0FFF743FD064605E000BFFFF73EFD4F
:100E6000801B6428F0D828688003F7D420789A4E35
:100E700080074FF001094FF0000839D5686810F07D
:100E80000C0F07D06868C0F38100022809D1686898
:100E9000C00306D42868800714D52069012808D12A
:100EA00010E02069B0B1C6F80090FFF717FD0746C3
:100EB00005E00AE1FFF712FDC01B0228C4D828682C
:100EC0008007F7D52868616920F0F80040EAC10082
:100ED00028600DE0C6F80080FFF700FD074604E03B
:100EE000FFF7FCFCC01B022823D828688007F7D432
:100EF000207800072CD57948A169D9B1C0F80090B5
:100F0000FFF7ECFC074604E0FFF7E8FCC01B0228F3
:100F10000FD8686A8007F7D571484FF4FA51006816
:100F2000B0FBF1F0009000BF0098411E0091FAD292
:100F30000EE080E0C0F80080FFF7D0FC074604E038
:100F4000FFF7CCFCC01B022875D8686A8007F7D46D
:100F50002078400760D5E8690027C00008D4E86918
:100F600040F08050E861E869012700F0805000906F
:100F70005C480168C90513D40168834641F4807157
:100F80000160FFF7ABFC824606E000BFFFF7A6FC5E
:100F9000A0EB0A0064284ED8DBF80000C005F5D5A8
:100FA000E06801280AD008B1052813D0286A20F08B
:100FB00001002862286A20F0040002E0286A40F05C
:100FC00001002862E06841F2883B98B1FFF786FC97
:100FD00082460BE0286A40F004002862EEE700BF7A
:100FE000FFF77CFCA0EB0A0159455AD8286A800714
:100FF000F6D50CE0FFF772FC824605E0FFF76EFCC9
:10100000A0EB0A0159454CD8286A8007F6D41FB1D5
:10101000E86920F08050E861E06988B36968C1F34D
:101020008101022944D00228C6F8608004D0FFF76D
:1010300055FC044638E034E0FFF750FC074604E076
:10104000FFF74CFCC01B02282BD828688001F7D47E
:10105000206AB0F5803F05D16868A16820F40030AF
:1010600008436860D4E908010843696821F47411F1
:1010700008436860C6F86090FFF730FC044606E05D
:1010800025E000BFFFF72AFC001B022809D82868CA
:101090008001F7D51BE000BFFFF720FC001B0228F2
:1010A00002D90320BDE8F88F28688001F4D40EE04F
:1010B0000128F7D06868226A00F48031914204D197
:1010C000616A00F47010884201D00120EAE7002034
:1010D000E8E7000000100240000042428004424263
:1010E000200100200070004010B5401EB0F1807F4C
:1010F00001D3012010BD4FF0E02460610F21601783
:1011000001F055FD0020A06107202061002010BDE6
:1011100010B590F83C20012A22D0012280F83C2012
:10112000CA688C6822F4407222434C6822F48062C0
:1011300022430C6822F4006222430C6922F480529C
:1011400022434C6922F400522243C969002322F44D
:1011500080420A4301684A6480F83C30002010BD98
:10116000022010BD70B590F83C20012A26D0012441
:1011700080F83C40022280F83D2003685A689D6850
:1011800022F070060A6832435A600D4B02689A4298
:1011900008D0B2F1804F05D00A4B9A4202D00A4BD8
:1011A0009A4204D1496825F080031943916080F880
:1011B0003D40002180F83C10084670BD022070BD03
:1011C000002C0140000400400008004010B504005D
:1011D00003D094F83D0010B107E0012010BD0020BD
:1011E00084F83C00204600F01FF8022084F83D00FF
:1011F000211D206801F072FA012084F8460084F86D
:101200003E0084F83F0084F8400084F8410084F8F0
:10121000420084F8430084F8440084F8450084F8D0
:101220003D00002010BD000008B500680649884256
:1012300008D10648C16941F00201C161C06900F0EE
:101240000200009008BD00000004004000100240B1
:1012500090F83D10012901D001207047022180F84B
:101260003D1000680B49884208D0B0F1804F05D08E
:101270000949884202D00949884204D1816801F0B5
:101280000701062903D0016841F001010160002037
:1012900070470000002C014000040040000800409E
:1012A00001680A6A41F211131A4207D10A6A9B10B7
:1012B0001A4203D10A6822F001020A60012180F873
:1012C0003D100020704770B5044690F83C000025A2
:1012D000012817D0012684F83C60022084F83D00E4
:1012E0002068826822F0770222F47F4282600868D8
:1012F000502838D00DDC20284FD005DC90B31028C2
:1013000011D14AE0022070BD302846D040280AD1D1
:101310003BE060282FD070280DD0B0F5805F03D05F
:10132000B0F5005F12D0012584F83D60002084F8FC
:101330003C00284670BDCB68D1E90121206801F04E
:1013400010FA2068816841F0770109E0CB68D1E9A3
:101350000121206801F005FA2068816841F480418C
:101360008160E1E719E0CA684968206801F0AEFAD7
:101370005021206806E0CA684968206801F0B7FA81
:101380006021206801F0F7F9CEE7CA684968206853
:1013900001F09CFA40212068F4E7226801461046DB
:1013A000F0E72DE9F0410D46040003D094F83D002C
:1013B00018B108E00120BDE8F081002084F83C006D
:1013C000204600F041F8022084F83D002068816842
:1013D00044F2070291438160211D206801F07EF9EB
:1013E000226890689169166A2B68AF69034340F2DE
:1013F0000330814341EA0721A868EF6908434FF6AB
:10140000FC418843E96840EA0720014328692F6AC4
:10141000000140EA0730084369686D6926F022063A
:1014200046EA0515294393602268906154F8460BFB
:101430000162012004F81F09E0752076E07620772C
:10144000A0750020B7E7000000B585B0002100912D
:1014500001910291039101681A48B1F1804F1BD0AC
:10146000194A914216D1C16941F00401C161C169B3
:1014700001F004010491816941F0080181618069F2
:10148000694600F008000490C02000900F4800BF9B
:10149000FFF72AF905B000BDC16941F00101C16142
:1014A000C16901F001010491816941F00401816188
:1014B0008069694600F0040004900320009004480D
:1014C000E6E700000010024000080040000C014068
:1014D0000008014070B590F83E60044690F83F5017
:1014E00090F8423090F84320022021B104290ED018
:1014F000012E1BD114E0012E18D1012B16D184F836
:101500003E0084F8420001220021206820E0012DE5
:101510000CD1012A0AD184F83F0084F8430014E07A
:10152000012D03D1012B01D1012A01D0012070BD71
:1015300084F83E0084F83F0084F8420084F84300B9
:1015400001220021206801F0FFF801220421206817
:1015500001F0FAF82068016841F001010160002003
:1015600070BD000000B585B000210091019102918D
:10157000039100680B49884212D10B48816941F000
:10158000040181618069694600F0040004904FF411
:10159000106000900220019003900448FFF7A4F827
:1015A00005B000BD002C01400010024000080140C1
:1015B00070B5044690F83C0000260D4601280FD077
:1015C000012084F83C006AB1042A1DD0082A2FD0DB
:1015D0000C2A3FD00126002084F83C00304670BD24
:1015E000022070BD206801F0CFF82068816941F0C9
:1015F000080181612068816921F00401816120680E
:1016000081692A69114311E0206801F0E5F820683A
:10161000816941F4006181612068816921F4806100
:101620008161206881692A6941EA02218161D2E7EA
:10163000206801F0FDF82068C16941F00801C1612E
:101640002068C16921F00401C1612068C1692A696B
:10165000114311E0206801F017F92068C16941F4D5
:101660000061C1612068C16921F48061C1612068A5
:10167000C1692A6941EA0221C161ACE710B50400E1
:1016800003D094F83D0010B107E0012010BD002008
:1016900084F83C00204600F01FF8022084F83D004A
:1016A000211D206801F01AF8012084F8460084F812
:1016B0003E0084F83F0084F8400084F8410084F83C
:1016C000420084F8430084F8440084F8450084F81C
:1016D0003D00002010BD000008B5006806498842A2
:1016E00008D10648816941F400618161806900F494
:1016F0000060009008BD0000002C01400010024076
:1017000010B50446022249B104290ED0082913D08D
:1017100094F84100012816D0012010BD94F83E0035
:101720000128F9D184F83E200FE094F83F00012809
:10173000F2D184F83F2008E094F840000128EBD172
:1017400084F8402001E084F841200122206800F064
:10175000FBFF0F492068884203D1426C42F40042EB
:1017600042642068884208D0B0F1804F05D0094912
:10177000884202D00849884204D1816801F00701FB
:10178000062903D0016841F001010160002010BD6D
:10179000002C0140000400400008004070477047E2
:1017A000F8B5016804460868CA684B6910F00F0F65
:1017B0004FF0000559D003F0010602F4907737434B
:1017C00065D0C10705D0D10503D5616C41F0010199
:1017D0006164410705D5D90703D0616C41F002016E
:1017E0006164810705D5D90703D0616C41F004011C
:1017F0006164010707D502F02001314303D0616C19
:1018000041F008016164616C00293AD0800604D57A
:10181000900602D5204601F0ABF820684069616C63
:10182000C0F38010090700D460B3204601F079F8B6
:1018300020684069400621D52068143050E8001F18
:1018400021F0400140E80012002AF5D1E06BA8B178
:101850006D494163E06BFEF7A9FE002811D0E06BF3
:10186000416B01B0BDE8F040084783060FD59306F1
:101870000DD52046BDE8F84001F07AB82046FFF7C4
:101880008EFFF8BD2046FFF78AFF6564F8BD266B22
:101890002023012E7CD1C6067AD5D60678D50868D5
:1018A0004868009048694FF00206400640D5E16B59
:1018B000086840680004000CE8D0A28D8242E5D997
:1018C000E085886920282DD020680C3050E8001F62
:1018D00021F4807140E80012002AF5D1206814300C
:1018E00050E8001F21F0010140E80012002AF5D164
:1018F0002068143050E8001F21F0400140E8001239
:10190000002AF5D184F84230256320680C3050E875
:10191000001F21F0100140E80012002AF5D1E06B11
:10192000FEF720FE6663A08DE18D401A81B22AE0A9
:10193000A08DE18D401A81B2E08D0028A6D000294B
:10194000A4D022680C3252E8000F20F4907042E8D4
:101950000007002FF5D12068143050E8002F22F046
:10196000010240E80027002FF5D184F842302563BA
:1019700020680C3050E8002F22F0100240E80023CD
:10198000002BF5D166632046FFF708FFF8BDFFE79F
:1019900005062BD5150629D594F841002128F5D147
:1019A000A068B0F5805F01D12069B0B1206A411C08
:1019B0002162216800784860E08C401E0004000C21
:1019C000E084E3D12068C16821F08001C160206813
:1019D000C16841F04001C160D8E7206A0088C0F3C7
:1019E00008004860206A801C2062E5E74006CDD5EB
:1019F0005006CBD5CA68204622F04002CA6084F85F
:101A0000413000F084F8C1E71329000870B50400E4
:101A100004D094F84100002510B106E0012070BD0B
:101A200084F84050204600F023F8242084F8410038
:101A30002068C16821F40051C160204600F0FAFF1F
:101A40002068016921F4904101612068416921F019
:101A50002A0141612068C16841F40051C160656498
:101A6000202084F8410084F842006563002070BDA6
:101A700030B585B00024009401940294039400686A
:101A8000184988422CD11848C16941F48021C161AC
:101A9000C16901F480210491816941F008018161EB
:101AA0008069124D00F0080004904FF480600090AF
:101AB000022001900320039069462846FEF714FE99
:101AC000E814CDE90004694628460294FEF70CFEAE
:101AD000002211462720FFF769F82720FFF758F862
:101AE00005B030BD0048004000100240000C01402D
:101AF00090F84230202B01D00220704721B11AB15A
:101B00000023036300F0F2BF012070477047704765
:101B1000FEE7000010B50E4C002208212046FEF71B
:101B2000D8FE00F017F8012210212046FEF7D1FE62
:101B300000F010F8002210212046FEF7CAFE00F047
:101B400009F820460122BDE810400821FEF7C1BE79
:101B5000000C01400020401CC0B20A28FBD3704793
:101B60000C4800B5816985B041F008018161806948
:101B7000694600F0080004901820009003200390AC
:101B8000112001900448FEF7AFFD00F09DF805B06C
:101B900000BD000000100240000C014010B50C4CCC
:101BA000012208212046FEF794FEFFF7D3FF012211
:101BB00010212046FEF78DFEFFF7CCFF00221021FA
:101BC0002046FEF786FEBDE81040FFF7C3BF0000C9
:101BD000000C01402DE9F0410024134E0746254634
:101BE0006006040E012210213046FEF772FEFFF758
:101BF000B1FF08213046FEF767FE08B1641CE4B26D
:101C0000002210213046FEF764FEFFF7A3FF6D1C93
:101C1000EDB2082DE4D327B1FFF77CFF2046BDE8E5
:101C2000F081FFF7BBFFF9E7000C014070B5154EDE
:101C300005460024280601D5012200E000220821E3
:101C40003046FEF746FEFFF785FF012210213046A1
:101C5000FEF73FFEFFF77EFF002210213046FEF721
:101C600038FE072C04D1012208213046FEF731FE50
:101C70006806050EFFF76EFF641CE4B2082CD9D38A
:101C800070BD0000000C014010B50E4C012208216F
:101C90002046FEF71EFE012210212046FEF719FE07
:101CA000FFF758FF002208212046FEF712FEFFF73B
:101CB00051FF002210212046FEF70BFEBDE8104028
:101CC000FFF748BF000C014010B50A4C0022082164
:101CD0002046FEF7FEFD012210212046FEF7F9FD09
:101CE000FFF738FF20460122BDE810400821FEF72B
:101CF000F0BD0000000C014070B5104D012208211C
:101D00002846FEF7E6FDFFF725FF012210212846B1
:101D1000FEF7DFFDFFF71EFF08212846FEF7D4FD82
:101D200008B1012400E00024002210212846FEF71B
:101D3000D0FDFFF70FFF204670BD0000000C0140F2
:101D40002DE9F04F8DB0A24800F08EFCA14D6861E6
:101D5000A14800F089FC404205F12402111FA8614E
:101D6000081F02F08BFAA5F17A02911E881E00F07E
:101D7000A2F9A5F17402911E881E00F083F9D5E93D
:101D80000501FEF78FFB69690791A8698146084440
:101D900000EBD070401003F08EFC904A904B03F0A3
:101DA000B5FC00228F4B03F0B1FC00228E4B03F0F8
:101DB000BFFA00228D4B03F0BBFA00228C4B03F0DC
:101DC000A5FC03F0C7F9A5F18004E066089003F0D4
:101DD00077FF80460022864B019103F0A9FA07465F
:101DE0000E46206903F06CFF3A46334603F0E4F9EF
:101DF00003F0B0F9834620617E49286A03F0F4FFBE
:101E000003F05EFF754A764B03F080FC03F0A2F905
:101E100020670746A16904F0DDF9774904F00EF95F
:101E2000A761606707998246A9EB010003F043FCB4
:101E30000022724B03F07CFA00226B4B03F078FA1D
:101E4000664A674B03F062FC0022664B03F05EFCBF
:101E50000022654B03F06CFA0022694B03F068FA2C
:101E60000022634B03F052FC03F074F9A067079063
:101E700003F026FF00225E4B03F05AFA064689461D
:101E8000606903F01DFF32464B4603F095F903F0FD
:101E900061F90026A6632664E66226630146606156
:101EA000304604F0CBF80C9006905146A06A04F03E
:101EB000C5F882463846E16B04F08CF9616A04F09B
:101EC000BDF881463146089804F084F9216A04F08F
:101ED000B5F807465946E06904F0B0F8394603F012
:101EE0001BFF494603F018FF514603F015FF8246D9
:101EF000069903F011FF07463046079904F06AF986
:101F0000314604F09BF8394604F064F9E0678146F5
:101F100050460C9904F05EF907463146079804F0E4
:101F200059F9314604F08AF8394604F053F98246EB
:101F30002860484603F0C4FE00222D4B03F0F8F958
:101F400002460B464046019903F036F906460F4615
:101F5000606B03F0B5FE8946044632463B4603F00B
:101F6000D5FB03F079FB04F03DF806466860504667
:101F700003F0A6FE00221E4B03F0DAF902460B46E0
:101F80004046019903F018F90B460246204649469F
:101F900003F0BCFB03F060FB04F024F8A8603046BB
:101FA00003F0E4FF174C66422246314600F054FB32
:101FB000E860A86803F0DAFF2246314600F04CFBE7
:101FC0002861E9680DB00846BDE8F04F00F01CB884
:101FD000D0010020C000002060020020F1D4C853CE
:101FE000FB21094000C0504000408F4000A09440B9
:101FF0000000694000003443000048430020644072
:1020000000609840E0E3FFFF2DE9F0410D461B4ED4
:1020100004004FF400514FF4805705D5012230469B
:10202000FEF757FC002204E000223046FEF751FC88
:10203000012239463046FEF74CFC002C00DA64429F
:102040000F4F386804644FF480414C00002D05DACE
:1020500001223046FEF73DFC002204E0002230461B
:10206000FEF737FC012221463046FEF732FC002DF8
:1020700000DA6D4238684563BDE8F081000C01402C
:10208000880100207CB514460D4606466B460622A4
:102090003B21682000F080F800280BD1BDF800102B
:1020A00049BA3180BDF8021049BA2980BDF8041040
:1020B00049BA21807CBD7CB514460D4606466B4668
:1020C00006224321682000F067F800280BD1BDF8F4
:1020D000001049BA3180BDF8021049BA2980BDF814
:1020E000041049BA21807CBD10B5FFF739FD80216D
:1020F0006B2000F0C0F86420FEF7A4FA00216B20EA
:1021000000F0B9F8032000F082F8002000F07AF81F
:10211000C82000F099F80021382000F0ACF8002128
:102120006A2000F0A8F80021232000F0A4F8802104
:10213000372000F0A0F8752000F011F8682801D0D1
:10214000012010BD01216B2000F095F800216C20CA
:1021500000F091F8C82000F077F8002010BD10B50D
:102160000446FFF791FDD020FFF760FDFFF7C4FDA7
:102170002046FFF75BFDFFF7BFFDFFF785FDD12090
:10218000FFF754FDFFF7B8FD0020FFF723FD0446DD
:10219000FFF79AFD204610BD2DE9F0411D4614467B
:1021A0000F460646FFF770FD7006000EFFF73EFD76
:1021B000FFF7A2FD20B1FFF787FD0120BDE8F08108
:1021C0003846FFF733FDFFF797FDFFF75DFD012070
:1021D00000EB4600C0B2FFF729FDFFF78DFD09E0D7
:1021E000012C0DD05FF00100FFF7F4FC641E05F830
:1021F000010BE4B2002CF3D1FFF766FD0020DDE710
:102200000020F1E7C006010E1C2000F034B8C00623
:10221000010E1B2000F02FB8BC2801D3012110E0D3
:10222000622801D302210CE02A2801D3032108E00F
:10223000142801D3042104E00A2801D3052100E079
:1022400006211A2000F017B810B504464FF47A7032
:10225000844201D9044602E0042C00D20424B0FBDD
:10226000F4F0401EC1B2192000F005F86008BDE886
:102270001040FFF7D1BF70B50C460546FFF704FDCF
:10228000D020FFF7D3FCFFF737FD50B92846FFF702
:10229000CDFCFFF731FD2046FFF7C8FCFFF72CFD12
:1022A00018B1FFF711FD012070BDFFF70DFD0020F3
:1022B00070BD2DE9F0411E4615460F460446FFF756
:1022C000E3FC6006000EFFF7B1FCFFF715FD60B9F7
:1022D0003846FFF7ABFCFFF70FFD00240CE0305D44
:1022E000FFF7A4FCFFF708FD20B1FFF7EDFC01208C
:1022F000BDE8F081641CE4B2AC42F0D3FFF7E4FC2B
:102300000020F5E72DE9F04186B000243248009422
:10231000019402940394816941F010018161816903
:1023200001F010010491816941F02001816181690E
:1023300001F020010491816941F00401816181690A
:1023400001F004010491816941F008018161806913
:10235000224F00F008000490002208213846FEF7C2
:10236000B8FADFF87C804FF218060022314640466A
:10237000FEF7AFFA042000901A48CDE9010469463F
:102380003846FEF7B1F908200125CDE90005032004
:10239000CDE9024069463846FEF7A6F90220CDE9AC
:1023A0000240CDE9006569464046FEF79DF92020D0
:1023B00000900D48CDE9010569464046FEF794F9C5
:1023C000002211460820FEF7F1FB0820FEF7E0FB93
:1023D00006B0BDE8F0810000001002400008014096
:1023E000000C014000003110000021100D4810B514
:1023F0000B4901600C49416000214FF4804281602B
:10240000C0E9031241618161C1610162FEF76CFAAA
:10241000002803D0BDE81040FEF741B810BD000011
:102420000054004034010020A086010010B592B095
:1024300000240F941C2168461094FDF71DFF2021F5
:1024400007A8FDF719FF25482349C0E9001441F604
:102450001F41C0E90241046144618461FFF70EF944
:1024600008B1FEF71CF80F940FA91C481094FEF752
:1024700079FE08B1FEF713F8602000904FF4E150A8
:10248000CDE901040394049405940022694613489D
:102490000694FFF78DF808B1FEF701F80C226946A3
:1024A0000E480194FFF784F808B1FDF7F8FF079490
:1024B000089409944FF400500A94CDE90B4007A901
:1024C00006480E94FEF724FE08B1FDF7E8FF034826
:1024D000FFF748F812B010BD002C01408801002021
:1024E00010B58CB024216846FDF7C6FE00241548BF
:1024F00009944FF080410A94C0E900144FF6FF712F
:10250000C0E90241046184610320CDE90004012097
:10251000CDE902040494CDE90540079469460948D1
:102520000894FEF73EFF08B1FDF7B9FF099409A929
:1025300004480A94FEF716FE002801D0FDF7AFFF0D
:102540000CB010BDD001002010B586B00024174893
:102550000094019402940394049413490594016037
:102560004721C0E901144FF6FF71C0E903148461EB
:10257000FEF72CFE08B1FDF792FF4FF4805000905B
:1025800069460A48FEF79FFE08B1FDF788FF0494EC
:1025900004A906480594FEF7E5FD002801D0FDF7E3
:1025A0007EFF06B010BD00000004004018020020AD
:1025B00010B58CB024216846FDF75EFE0024164855
:1025C000099414490A94C0E900144FF6FF71C0E958
:1025D0000241046184610320CDE900040120CDE9BA
:1025E00002040494CDE90540079469460A4808941A
:1025F000FEF7D7FE08B1FDF752FF099409A9064876
:102600000A94FEF7AFFD002801D0FDF748FF0CB09B
:1026100010BD000000080040600200200C4810B50A
:102620000A4901604FF416514160002181600C227B
:10263000C160C0E904128161C161FFF7E7F90028B8
:1026400003D0BDE81040FDF72ABF10BD0048004090
:10265000A8020020FEE7FEE7884200DD084690421F
:1026600000DA1046704770470168486A002200B2DD
:102670004A6270477047FEF733BA30B58FB02821F1
:102680006846FDF7F9FD14210AA8FDF7F5FD0121C3
:102690000804CDE900100024029402250491CDE93C
:1026A00007504FF4E01009906846FEF78DFB08B123
:1026B00072B6FEE70F20CDE90A054FF48060CDE940
:1026C0000C4002210AA80E94FEF7A2FA002801D0BD
:1026D00072B6FEE70FB030BD70470000F0B502687B
:1026E000164B174C174D4FF08047984205D0B84213
:1026F00003D0A04201D0A84203D122F070064A685C
:102700003243984205D0B84203D0A04201D0A8423B
:1027100003D122F44074CA6822434C6922F080023B
:10272000224302608A68C2620A688262984201D1CA
:102730000969016301214161F0BD0000002C0140E5
:10274000000400400008004010B501F01F03012103
:10275000046A99408C430462016A9A401143016201
:1027600010BD10B5846842EA032224F47F440A4372
:102770002243826010BD826822F070020A4342F058
:10278000070181607047000030B5036A026A22F0D9
:10279000010202624268846924F073050C682C43CC
:1027A00023F002058B682B430A4DA8420BD123F07E
:1027B0000805CB6822F440722B434D6923F00403D3
:1027C00015438A692A434260846149684163036210
:1027D00030BD0000002C014030B5026A036A23F0CE
:1027E00010030362436884690D6824F4E64444EAF4
:1027F00005248D6822F0200242EA05120B4DA84202
:102800000ED1CD6822F0800242EA05124D6923F410
:10281000406343EA85038D6922F0400243EA850361
:102820004360846149688163026230BD002C0140CD
:1028300030B5036A026A22F4807202624268C46997
:1028400023F4007324F073050C682C438D6843EA6D
:1028500005230C4DA8420ED1CD6823F4006343EA52
:1028600005234D6922F4405242EA05128D6923F492
:10287000806342EA05124260C4614968C163036231
:1028800030BD0000002C014030B5046A026A22F419
:10289000805202624268C3690D6823F4E64343EA4A
:1028A00005238D6824F4005444EA0534064DA842FB
:1028B00004D14D6922F4804242EA85124260C3612C
:1028C00049680164046230BD002C014010B5036A00
:1028D000046A24F001040462846924F0F00444EAE8
:1028E000021423F00A020A438461026210BD10B58B
:1028F000036A046A24F010040462846923F0A003CC
:1029000024F4704444EA023243EA01118261016214
:1029100010BD10B5406A0021C185C184FEF73FFF9C
:1029200010BD01680C3151E8002F22F4907241E88B
:102930000023002BF5D10168143151E8002F22F05B
:10294000010241E80023002BF5D1016B012909D1D7
:1029500001680C3151E8002F22F0100241E80023F9
:10296000002BF5D1202180F842100021016370472F
:1029700008B590F84210222901D0022008BD8268D3
:102980004FF480539A4201D1016921B1816A9A4280
:102990001BD04AB10AE00268816A5268C2F3080299
:1029A0000A80816A891C08E0026972B10268526873
:1029B00002F07F020A70816A491C8162C18D491E42
:1029C0000904090CC18503D01BE002685268F1E7D5
:1029D0000168CA6822F02002CA600168CA6822F44D
:1029E0008072CA6001684A6922F001024A612021AE
:1029F00080F8421000214163026B012A03D0FFF7E7
:102A000085F8002008BD016301680C3151E8002FF2
:102A100022F0100241E80023002BF5D101680A687A
:102A2000D20602D50A6849680091818DFEF7B6FE8C
:102A3000E7E7000070B5044600680169E26821F428
:102A40004051114301612169A0680843616908434D
:102A50002168CA6841F20C639A430243CA60206845
:102A60004169A26921F44071114341611E49206806
:102A7000884202D1FEF772F901E0FEF75FF900EB40
:102A8000C00101EB0012606864218000B2FBF0F32A
:102A9000B3FBF1F36FF018067343B2FBF0F5B2FB32
:102AA000F0F605EB8305322303EB0515B5FBF1F5D5
:102AB000B6FBF1F605F0F00505EB0615B2FBF0F6F6
:102AC000B2FBF0F0B0FBF1F06FF01802504306EBF0
:102AD000800003EB0010B0FBF1F0216800F00F0064
:102AE0002844886070BD0000003801408162828502
:102AF000C28500214164222180F84210016921B180
:102B00000168CA6842F48072CA6001684A6942F08A
:102B100001024A610068C16841F02001C1600020E3
:102B20007047000010B51548FEF73AFE14480278C9
:102B3000401F0021027042B10123012A07D0052A5B
:102B400009D0032A0AD0072A0DD0417000E0437053
:102B50008170C1700AE041708370FAE74170817042
:102B6000C170037103E041708170C3700171BDE8F1
:102B70001040012202490148FEF7BABFA802002016
:102B800011010020FEE7490050EAC12018BF0420CF
:102B90004A0D18BF40F0010040F2FF72B2EB515FE6
:102BA00008BF40F00200012808BF05207047090750
:102BB000090E002804DB00F1E02080F800147047C3
:102BC00000F00F0000F1E02080F8141D70472DE99F
:102BD000F0414F1E00EBC7010446D1E90001154644
:102BE0001E4637F006020DD02A46334602F08EFD0F
:102BF0007F1E04EBC703D3E9002302F0DDFA37F0B0
:102C00000602F1D1022F25D0042F13D0062F18BFB2
:102C1000BDE8F0812A46334602F078FDD4E90A2364
:102C200002F0CAFA2A46334602F070FDD4E90823BE
:102C300002F0C2FA2A46334602F068FDD4E90623C0
:102C400002F0BAFA2A46334602F060FDD4E90423C2
:102C500002F0B2FA2A46334602F058FDD4E90223C4
:102C600002F0AAFA2A46334602F050FDD4E90023C6
:102C7000BDE8F04102F0A0BA012203F052BB02F01D
:102C80009BBA002213461046114602F051BB0000C9
:102C9000024A0020110703F044BB000001FDFFFFC2
:102CA0002DE9FE4F07460E460025684600F0F8FF66
:102CB00000246FF00F0AE8464FF0010957F824008E
:102CC00056F82410401A00D5404203F08BF95146C3
:102CD00003F055FB58F8241011F0FF4F0BD003F010
:102CE00083F84FF07E5103F075FA0A4920F0004056
:102CF000884205DC07E0084908440849884202D3B5
:102D000009FA04F00543641C032CD7DB2846BDE810
:102D1000FE8F0000295C0F3E666666C19A99D90055
:102D20002DE9F04D8D4F21F0004A86B005460C4646
:102D3000BA452ADBAAEB070028430AD08848824517
:102D400001DC1AD1CDB106B02846BDE8F04DFFF741
:102D500093BF844A844B284602F0D8FC07460E46AF
:102D6000824A834B2846214602F0D0FC06B03A4600
:102D70003346BDE8F04D02F01FBA0120FDF722FBFB
:102D800006B0BDE8F04DFFF77CBF7A48824542DAD5
:102D9000BAF1795F0BDA2846FFF7F5FE042808BF81
:102DA000FFF776FF284606B02146BDE8F08D2A469B
:102DB0000B46104602F0AAFC834602466E480E46B9
:102DC0000B4606217844FFF702FF5A46334602F0CD
:102DD0009DFC804669488A465A4633460421784419
:102DE000FFF7F5FE5A46334602F090FC00223B46C0
:102DF00002F0E2F902460B464046514602F098FACC
:102E00002A46234602F082FC06B02A462346BDE845
:102E1000F04D02F0D1B9284624F0004100223D4691
:102E20003B4602F071FD4FF0FF3203F07AFA06469E
:102E3000024653480F460B4606217844FFF7C7FE6B
:102E400032463B4602F062FCCDE900014D48324675
:102E50003B4604217844FFF7BAFE32463B4602F077
:102E600055FC00222B4602F0A7F98346029130461A
:102E7000394602F049F9804643480D46504517DC73
:102E8000DDE900015A46029B02F052FA42462B4607
:102E900002F03CFC42462B4602F08EF9012203F080
:102EA00040FA304A304B02F021FE304A304B4CE0C1
:102EB0004FF0000A52460B46404602F07DF9CDE93C
:102EC000031052462B461046194602F01FFC3246AC
:102ED0003B4602F019FDDDE9033202F029FA06460D
:102EE0000F46DDE900015A46029B02F021FA8346B3
:102EF000009101223046394603F013FA194A1A4B61
:102F000002F002FD06460F4601224046294603F024
:102F100008FA5A46009B02F0F9FB32463B4602F0A3
:102F2000E5FD06460F4601225046294603F0F9F911
:102F30000E4DDFF858802A46434602F0E5FC324643
:102F40003B4602F0E1FC2A46434602F0DDFC002C41
:102F5000D8BF81F0004106B0BDE8F08D0000F03F21
:102F60000000F07F075C143326A6913C182D4454D2
:102F7000FB21F93F0000E03FA8420000BE420000F4
:102F800032420000484200003333EF3FFB21E93F6B
:102F90002DE9F84F04460D4621F000400091734999
:102FA000814211DC7249884201DC06D12CB12046F5
:102FB0002946BDE8F84FFFF75FBE6E48002DCCBF35
:102FC0006D496E49BDE8F88F6D49814211DD6D494B
:102FD0008142D8BF4FF0FF366DDD20462946FFF70E
:102FE000D2FD042808BFFFF753FE20462946BDE85E
:102FF000F88F6549654F25F00045814233DD64490E
:10300000814219DD002632464FF080432046294692
:1030100002F0D2F880468A4601222046294603F073
:1030200080F900223B4602F061FD4246534602F021
:103030007FF904460D463EE001260022BA463B4693
:103040002046294602F0B8F880460F460022534633
:103050002046294602F04AFD42463B4602F068F906
:1030600004460D4627E04B4981421BDDDFF828A1CD
:103070000226002253462046294602F047FB002242
:103080003B4602F099F880460F4600225346204600
:10309000294602F02BFD42463B4602F049F9044620
:1030A0000D4608E0032622462B4600203B4902F04D
:1030B0003FF904460D4622462B461046194602F0BB
:1030C00025FB8B46824602460B4602F01FFB074655
:1030D0000246334888460B4606217844FFF777FDC1
:1030E00052465B4602F012FB82462E488B463A4619
:1030F000434605217844FFF76AFD3A46434602F00D
:1031000005FB02460B46002E504659460CDA02F0EB
:1031100053F822462B4602F0F9FA01B022462B461C
:10312000BDE8F04F02F0F0BB02F046F822462B4615
:1031300002F0ECFA1C4A7A4402EBC603D3E90023FE
:1031400002F0D4FC22462B4602F0D0FC174A7A4407
:1031500002EBC603D3E9002302F0D6FB009A002A53
:10316000B8BF81F00041BDE8F88F000000001044B6
:103170000000F07F182D4454FB21F93FFB21F9BFDB
:103180000000DC3F0000203E0000F33F0000F03F65
:103190000000E63F008003400000F83F0000F0BF61
:1031A0004A40000008400000A63F00006E3F0000BB
:1031B0002DE9F04D9446CCF1000423F000464CEA92
:1031C0000404594F46EAD4749A46884621F00042D6
:1031D000BC4206D8454240EA050442EAD474BC42E7
:1031E00004D9BDE8F04D6246FFF749BDAAF140554C
:1031F000A5F17F6555EA0C040BD0022404EAAA74F9
:103200004A4DDFF82CE144EAD87452EA000B04D0AE
:103210000CE0BDE8F04DFFF7BBBE002C14BF012C45
:10322000BDE8F08D022C30D0032C32D056EA0C0BC6
:103230000AD0BE4220D1BA4209D126F0804622F0FF
:1032400080423346114617E000291ADB25E0DFF8FB
:10325000E4B0FB44002C04BFDBE90001BDE8F08DC5
:10326000012C02BFDBE9000181F00041BDE8F08DD7
:10327000022C0AD0032C0CD0BA4212D1B8F1000FA4
:103280000BDA2A482C49BDE8F08D28462B49BDE8C9
:10329000F08D28467146BDE8F08D24482849BDE8E8
:1032A000F08D921B12153C2AC4BF204F244E10DC17
:1032B000BAF1000FBEBF12F13C0F00273E4608DBFB
:1032C000624602F035F821F00041FFF761FE074643
:1032D0000E4694B1012C08BF86F000460DD0194A65
:1032E000194B022C3846314615D002F0FFFB2A4616
:1032F000BDE8F04D114B02F0F9BB002213463846F1
:10330000314602F06DF904BF0220FDF75BF8384644
:103310003146BDE8F08D02F0E9FB2A46BDE8F04DEC
:10332000064B02F0F1BA00000000F07F182D445463
:10333000FB2109C0023F0000FB21F9BFFB2109402E
:10334000FB21F93F075C143326A6A13C08B560B108
:1033500020208DF8000028208DF8010030208DF805
:10336000020038208DF8030004E0A32204216846FF
:10337000FCF77AFF6A46042140F69E2001F02EFEFB
:1033800001F0ECFA08BD00003EB5044602208DF8BD
:103390000000CA208DF80100E3208DF8020009200A
:1033A0008DF803006A460421682001F017FEA3206F
:1033B0008DF80000610609D5C0218DF80110C821E3
:1033C0008DF80210C2218DF8031005E08DF8010080
:1033D0008DF802008DF8030014F4C07F09D0C421D9
:1033E0008DF80410CC218DF80510C6218DF806103B
:1033F00005E08DF804008DF805008DF806008DF8C5
:1034000008008DF807008DF809006A460A2140F689
:10341000A72001F0E3FDA0074FF0D80503D020203E
:103420008DF8000001E08DF800506A46012140F659
:10343000B62001F0D3FDA00601D5012000E0002058
:1034400000F08EF814F4C07F1ED0E0050AD5B2203B
:103450008DF800008B208DF80100B6208DF8020059
:103460009B2009E0B0208DF8000080208DF801003D
:10347000B4208DF8020090208DF803006A460421E4
:1034800040F6A22001F0AAFDE1074FF40B6022D024
:10349000F8218DF800106A46012101F09FFDFA2104
:1034A000072000F049FB072000F014FB012000F08A
:1034B00031FB642000F0D4FB4FF4FA7000F0E0FB25
:1034C000C821254800F0CEFA282000F0E3FA0A20AF
:1034D00000F0F0FA05E08DF800506A46012101F095
:1034E0007DFDA00703D5D9208DF8000001E08DF8FF
:1034F00000506A46012140F23D7001F06FFD600707
:1035000001D5012000E0002000F048F8E00601D5D8
:10351000012000E00020FFF719FF104D44F00800E3
:10352000688101F01BFA0020A873600601D506200F
:10353000A87314F4C07F02D0A87B801DA87314F078
:10354000140F02D0A87B1030A873A00702D0A87B6C
:10355000001DA87300203EBD09E3CA02240100201B
:103560000EB54FF4976310B106A107C901E008A298
:1035700007CA8DE807006A460921184601F02EFDAA
:103580000EBD0000B8AAB38DB4980D355D000000E3
:10359000B8AAAAAAB088C3C5C700000008B560B120
:1035A000C0208DF80000C2208DF80100C4208DF8E5
:1035B0000200C6208DF8030004E08B220421684637
:1035C000FCF752FE6A46042140F6982001F006FD01
:1035D00001F0C4F908BD0000C8234FF4806202491D
:1035E00040F6F63001F09CB84C6400082DE9FF4F1E
:1035F00089B01746DDE916520024544E88468146AC
:103600002C80A246B07B694601F036F94FF0FF3BB3
:1036100018B158460DB0BDE8F08F708910F0140F46
:103620004CD0BDF800109DF8022049BA090441EAC7
:1036300002239DF803100B433B60BDF804109DF876
:10364000062049BA090441EA02229DF807101B141A
:103650000A437A60BDF808109DF80A4049BA090487
:1036600041EA04219DF80B4012142143B960BDF8D2
:103670000C409DF80EC064BA240444EA0C2C9DF85A
:103680000F4009144CEA040CC7F80CC04FEA2C4751
:103690005B43494302FB023207FB0711114410242C
:1036A000A1F17061B1F1007F04D901F057F9A5F8DB
:1036B00000A0AEE7298841F480712980420669465E
:1036C00011D50A19A41D13885BBAA8F800305388D5
:1036D0005BBAA8F80230928852BAA8F804202A8867
:1036E00042F008022A8010F4C07F11D00A19A41DEC
:1036F00013885BBAA9F8003053885BBAA9F8023086
:10370000928852BAA9F804202A8842F070022A80CE
:10371000800716D00C44E07800F0C00500F03F01AF
:103720006078C00706D0C80801F007013268491C5C
:1037300002B190476078000703D5716809B1A80904
:1037400088470C9800F06EFD002063E724010020FC
:103750002DE9FF41044603A800F0CAFEBDF80C00A5
:10376000410CC3032F48008900F0030254F8225093
:10377000420700D56D42C0F3C102860654F82220EC
:1037800000D55242C0F38116C00554F8264000D53A
:103790006442A5FB0367E81700FB037005FB01000B
:1037A000850045EA9670A2FB0367D51705FB0375F4
:1037B00002FB0152950045EA9672A4FB0367E517E8
:1037C00005FB037304FB01318B0043EA9671030E82
:1037D0008DF80030030C8DF80130030A8DF80230AB
:1037E0008DF80300100E8DF80400100C8DF8050004
:1037F000100A8DF80600080E8DF80800080C8DF8E8
:103800000900080A8DF80A008DF807208DF80B10C2
:103810006A460C214FF4257001F0E0FB04B0BDE8CE
:10382000F08100002401002030B5044613A285B0C9
:1038300007CA8DE807004FF0FF35C82C16D8C820FE
:10384000B0FBF4F1491E080A8DF80C008DF80D103C
:1038500003AA022140F2162001F0C0FB30B96A46EB
:103860000C2140F6C12001F0B9FB10B1284605B08B
:1038700030BD054884810020F9E70000FEF2ABC4AA
:10388000AAF1DFDFBBAFDFDF24010020F8B530494C
:10389000098901F0030250F822404A0700D564422A
:1038A000C1F3C1028B0650F8222000D55242C1F369
:1038B000811350F82330C80500D55B42254984FBAD
:1038C0000140850045EA947082FB0142A40F44EA5E
:1038D000820483FB0121950F45EA8105010E8DF8D5
:1038E0000010010C8DF80110010A8DF802108DF8FE
:1038F00003006A4604214FF4747001F06FFB4FF02F
:10390000FF3688B9200E8DF80000200C8DF80100DC
:10391000200A8DF802008DF803406A4604214FF416
:10392000757001F05BFB08B13046F8BD280E8DF8CC
:103930000000280C8DF80100280A8DF802008DF88F
:1039400003506A4604214FF4767001F047FBF8BD3E
:103950002401002009E3CA022DE9FF4104463CA0EE
:1039600004F00303006802903AA0006803903AA0B4
:1039700006683AA0056802A8C15C8DF80010C4F37F
:10398000C101425C8DF80120C4F38112805C8DF886
:10399000020003A8C35C8DF80430415C8DF805106B
:1039A000805C8DF806006A46032140F2264001F053
:1039B00015FB4FF0FF37E0BB01AA032140F22A407C
:1039C00001F00CFBA8BBCDE9006560070BD59DF8A5
:1039D000000040F001008DF800009DF8040040F068
:1039E00001008DF80400A0060BD59DF8010040F001
:1039F00001008DF801009DF8050040F001008DF8F0
:103A00000500E0050BD59DF8020040F001008DF89F
:103A100002009DF8060040F001008DF806006A469D
:103A200003214FF4886001F0D9FA10B901AA0321EB
:103A300000E004E040F2314001F0D0FA18B138461D
:103A400004B0BDE8F081064804810020F8E70000DA
:103A50004CCD6C000CC92C0036567600264666000C
:103A6000240100204FF47A7290FBF2F008B548432D
:103A7000010E8DF80010010C8DF80110010A8DF86F
:103A800002108DF803006A4604214FF4AE7001F075
:103A9000A5FA08BD0521B0FBF1F008B5010A8DF8C3
:103AA00000108DF801006A4602214FF4AD7001F05C
:103AB00095FA08BD0521B0FBF1F008B5010A8DF8B3
:103AC00000108DF801006A4602214FF4AC7001F03D
:103AD00085FA08BD08B500218DF80010C10702D095
:103AE00030218DF80010810705D59DF8001041F0B8
:103AF0000C018DF80010400705D59DF8000040F03E
:103B000003008DF800006A4601214FF4A47001F013
:103B100065FA08BD08B560B1042800D90420401E2C
:103B20008DF800006A46012140F24F1001F056FA6C
:103B300008BD0120F3E700002DE9FC4105464007E0
:103B40004FF0FF367CD0B1F5C86F79D8084602F047
:103B500061FA3E4902F048F9074601A800F0AAFCC4
:103B60009DF80400022806D004280DD008282ED085
:103B7000102865D134E00E21384602F000FC02F036
:103B800011FA84B2324907E00D21384602F0F7FB02
:103B900002F008FA2F4984B2384602F04FFA02F0D8
:103BA00001FA210A8DF8001080B28DF80140010A57
:103BB0008DF802108DF80300E8076C4620D02246ED
:103BC00002214FF4EA7001F009FAC8BB11E00C21A0
:103BD000384602F0D4FB02F0E5F984B21E49DBE777
:103BE0000B21384602F0CBFB02F0DCF984B21B4912
:103BF000D2E7A21C02214FF4927001F0EFF9F8B95C
:103C0000A8070DD56A4602214FF4EC7001F0E6F9E1
:103C1000B0B9A21C02214FF4947001F0DFF978B919
:103C2000680710D56A4602214FF4EE7001F0D6F90C
:103C300030B9A21C02214FF4967001F0CFF910B1F7
:103C40003046BDE8FC810020FBE70000000048434F
:103C5000000040460000C045000040450000C04450
:103C60000521B0FBF1F008B5010A8DF800108DF8C0
:103C700001006A4602214FF4EF7001F0AFF908BD70
:103C80000521B0FBF1F008B5010A8DF800108DF8A0
:103C900001006A4602214FF4ED7001F09FF908BD62
:103CA0002DE9FE430646264801AB042240680D215B
:103CB0000078FEF771FA10B10720BDE8FE839DF889
:103CC00004101C2000EAD1029DF80710DFF8749060
:103CD000C1F301131A438DF800209DF80520C1F3AC
:103CE000810300EAD2021A438DF801209DF80620D4
:103CF00001F0030100EAD20008430024124F8DF8BE
:103D00000200A0466D46285D10B146F824900AE0F6
:103D100046F824800DE000BF56F82400394602F032
:103D20008DF946F82400285D401E10F0FF0028554C
:103D3000F2D1641CE4B2032CE5D30020BDE70000FF
:103D4000000000207B14AE3E1D5A843F2DE9FE4F3B
:103D500005460120C14E8DF800004FF000088DF897
:103D6000018030680C461746817C70686B460222E1
:103D70000078FEF79EFA4FF0FF3A00287AD1C8206B
:103D8000FCF760FC8DF8008030686B460122C17B37
:103D900070680078FEF78DFA0028EFD130686B4626
:103DA0000122417970680078FEF783FA0028E5D196
:103DB00030686B460122817C70680078FEF779FAE2
:103DC0000028DBD130686B460122C17D7068007825
:103DD000FEF76FFA0028D1D130686B4601220179D5
:103DE00070680078FEF765FA0028C7D14FF00C091B
:103DF0008DF8009030686B46012201797068007878
:103E0000FEF757FA002835D10F20FCF71BFCB06AEB
:103E10006B460122407A8DF8000030688178706826
:103E20000078FEF746FA002824D1B06A6B460122DA
:103E3000007A8DF800003068417870680078FEF7ED
:103E400038FA002873D1B06A807A0FB140F0E000F0
:103E50008DF8000030686B46012281797068007827
:103E6000FEF727FA002862D12FB1B06AC07A40F07D
:103E7000E00001E04AE018208DF8000030686B4651
:103E80000122C17970680078FEF713FAF0BB17B110
:103E9000C820FCF7D7FB40208DF8000030686B4647
:103EA0000122017970680078FEF703FA70BB782070
:103EB0008DF8000030686B46012241797068007807
:103EC000FEF7F7F910BB3220FCF7BCFB8DF8008041
:103ED000306847466B464179706801220078FEF7EA
:103EE000E8F998B931687068B046897A00786B460D
:103EF0000222FEF751F948B9BDF80000AF6040BAA0
:103F0000B0FBF9F06F60C6B22F6000E00FE0A76071
:103F100067602760002739E0D8F80010D8F804005F
:103F20006B46C97A00780C22FEF736F910B150467C
:103F3000BDE8FE8FBDF80000236840BA00B2BDF8AE
:103F40000210BDF804201844206049BA606809B224
:103F50000844606052BAA06812B21044A060BDF874
:103F600006002B6840BA01B2BDF80800BDF80A206F
:103F70001944296040BA696800B20844686052BABE
:103F8000A86812B210447F1CFFB2A860B742C3D326
:103F900028688322C117090441EA10410004002364
:103FA000FCF712F932460023FCF70EF92860686826
:103FB0008322C117090441EA104100040023FCF7E1
:103FC00003F932460023FCF7FFF86860A8688322F3
:103FD000C117090441EA104100040023FCF7F4F87A
:103FE00032460023FCF7F0F8A86020684FF4006523
:103FF000C117090441EA104100042A460023FCF7D6
:10400000E3F832460023FCF7DFF8206060682A46B8
:10401000C117090441EA104100040023FCF7D4F859
:1040200032460023FCF7D0F86060A0682A46C1172A
:10403000090441EA104100040023FCF7C5F83246A8
:104040000023FCF7C1F8A060002802DDA0F5803055
:1040500001E000F58030A060002069E7000000204A
:104060002DE9F84F81462E488846002540686B466A
:10407000032200780D21FEF78FF810B10720BDE86C
:10408000F88F9DF80000002400F01F008DF800005C
:104090009DF801006FF00F0B00F01F008DF801007C
:1040A0009DF802006E4600F01F008DF802004FF0F0
:1040B000010A00BF59F8241058F82400081A00D546
:1040C000404201F08FFF594602F059F90746305D32
:1040D000C0B1144802E0144901F0B0FF315D491E3F
:1040E00011F0FF013155F6D10146384601F07CFE52
:1040F0004FF07E5102F06EF80C4920F000408842EB
:1041000005DC07E00A483844B0F1D97F02D90AFA41
:1041100004F00543641C032CCCDB2846AFE7000009
:10412000000000200000C84154E3853F295C0F3E99
:104130000000E0BE00B5024600F00DF80346D01CBA
:1041400000F009F843EAC003901D00F004F843EAC8
:10415000801080B200BD90F90010002902DD4FF000
:104160000000704702DA4FF00400704790F9011028
:10417000002902DD4FF00100704702DA4FF0050020
:10418000704790F90200002802DD4FF002007047EE
:1041900002DA4FF0060070474FF00700704700004A
:1041A000FCF7A6FCFEF769FAFEF7ACF8FEF71EF97D
:1041B000FEF7CAF9FEF73AF9FEF792F9FEF7F8F9B9
:1041C000FEF72CFAFDF790FF00F026F900221146C9
:1041D0001720FCF7EBFC1720FCF7DAFC00210C4859
:1041E000FDF78EFA0C210A48FDF78AFA3C210948AE
:1041F000FDF770F93C210848FDF76CF901220749E9
:104200000748FDF775FC00210846FDF7FDFEFEE7B7
:1042100088010020D0010020600200201101002050
:10422000A8020020704700002DE9F041124C20F058
:104230000101002594F8240010B10020BDE8F081B0
:10424000A07A4FF0FF3668B10840277C207488427E
:1042500000D0354641B1012000F02AFF00F07EFB7E
:1042600038B127743046E9E7207D00B1012000F025
:104270001FFF2846E2E70000000000202DE9F74F6D
:104280008EB00CA902A8CDE900010BAB03AA09A9C5
:1042900007A8FFF7ABF918B1012011B0BDE8F08F06
:1042A000BDF80800C0057DD5039801F09BFE6FF0B6
:1042B0001D04214602F063F88246049801F092FE44
:1042C000214602F05CF88146059801F08BFE2146FC
:1042D00002F055F88046069801F084FE214602F06F
:1042E0004EF805460121504602F049F8064641467F
:1042F00001F0A4FE04464FF04041484601F09EFE06
:104300000746294601F09AFE214601F005FD01F01D
:10431000D7FCFEF705FD4FF0663B5A463D4B01F0DA
:10432000F5F900F017FF0E9908600121404602F0F0
:1043300026F84146009001F081FE04463846494681
:1043400001F07CFE214601F045FF4FF07E5101F067
:10435000E3FC01F0B5FC07460C463046494601F047
:104360006DFE06462946009801F068FE314601F0D0
:10437000D3FC01F0A5FC3A462346FEF719FF5A4646
:10438000244B01F0C3F900F0E5FE0F9908602946BF
:10439000084601F053FE07464146084601F04EFE2E
:1043A000064600E034E04946084601F047FE044670
:1043B0005146084601F042FE214601F0ADFC31466F
:1043C00001F008FF394601F005FF01F079FC0646CF
:1043D0000C462946504601F031FE05464146484606
:1043E00001F02CFE294601F097FC012101F0C7FFE6
:1043F00001F066FC32462346FEF7DAFE5A46054BCC
:1044000001F084F900F0A6FE10990860002044E74E
:10441000022042E766A64C4010B5FDF7A1FB00F074
:10442000EDF808B10A2010BD782000F07BFD10F0F7
:10443000FF0F01D0012010BD7820FFF7F5FE10F02E
:10444000FF0F01D0022010BD642000F02BFD10F002
:10445000FF0F01D0032010BDFFF7BEF810F0FF0FD3
:1044600001D0042010BD1248FFF764FEFFF774FA74
:1044700010F0FF0F01D0052010BD40F27310FEF7C1
:1044800083FF10F0FF0F01D0062010BD6420FFF75E
:10449000CBF910F0FF0F01D0072010BD00F0C8FDD0
:1044A000012000F025FC10F0FF00F6D0092010BD1F
:1044B0002C0000200D494A7A42B1012A08D0022A74
:1044C0000FD0032A0FD04FF0FF307047022200E0D8
:1044D00004220270C97C11B11106C90D01700020BF
:1044E00070470822F5E71022F3E7000000000020E3
:1044F0000F494A7A42B1012A09D0022A11D0032A6F
:1045000012D04FF0FF3070474FF4804201E041F687
:104510009C720280C97C11B1C2F34E01018000205F
:1045200070474FF48052F4E74FF40062F1E7000067
:10453000000000200B49097A39B1012907D002296E
:104540000AD003290BD0002103E0FA2101E04FF447
:10455000FA710180002070474FF47A71F9E74FF447
:10456000FA61F6E7000000200A49097A41B1012901
:1045700008D002290AD003290AD04FF0FF30704733
:10458000054900E005490160002070470449FAE749
:104590000449F8E7000000200000034300008342C4
:1045A00033330342333383410C49C97A072913D289
:1045B000DFE801F01204060A0C0E1000BC2100E036
:1045C00062210180002070472A21FAE71421F8E7D0
:1045D0000A21F6E70521F4E70021F2E700000020B8
:1045E000054991F8242012B14FF0FF307047C98976
:1045F0000180002070470000000000202DE9FC41F0
:10460000464C80208DF8000020686B460122817C9A
:1046100060680078FDF74DFE4FF0FF37002875D138
:104620006420FCF70FF800258DF8005020686B46D9
:104630000122817C60680078FDF73BFE002865D18F
:1046400020686B460622817D60680078FDF7A4FD36
:1046500000285BD19DF805009DF80310C007400FAE
:1046600001F0010140EA41009DF801104FF0010600
:1046700001F00101084304D0012831D0022810D0F4
:1046800044E020686B460122C17860680078FDF73D
:1046900083FDD8BB9DF8000010F00F0036D0042831
:1046A0001ED0E574FF2004F80A0F4FF6FF7104F8DE
:1046B000020C04F8010C6070A180A0712072A67039
:1046C00026766576E572A572E56025616561A57659
:1046D000E576A5834FF4FA6000F046FBB0B901E03F
:1046E000E674DFE7022000F061FA78B92A2000F0D2
:1046F000A3FB58B9322000F0D5FB38B90020FFF7F2
:1047000093FD18B9002000F085FA10B13846BDE8D5
:10471000FC81002000F006FC0020F8E700000020EB
:104720002DE9FF4FDFF89480064685B098F8250004
:1047300015460F464FF0FF39B0BBAFB3002420E061
:10474000301B102800DD102080B283463A19014644
:104750009246204600F042FC30BB6A46594620464D
:1047600000F0D2F800BB50465A466946FBF750FDB0
:1047700020B16FF0010009B0BDE8F08F04EB0B0031
:1047800084B2B442DCD3280A8DF810008DF81150A1
:10479000D8F80000444604AB817ED8F80400022219
:1047A0000078FDF786FD08B14846E4E7012084F86B
:1047B00025000898E0840020DDE7000000000020CC
:1047C0002DE9F84305464FF0FF39282844D807273C
:1047D000284C00267DB1012000F0FCFA20208DF845
:1047E00000004FF00108012D17D0052D18D88DF8C5
:1047F000018005201FE0002000F0ECFA8DF8006039
:104800008DF8017020686B460222817C6068007818
:10481000FDF74FFD00BB267529E08DF80160E8E744
:10482000142D04D802208DF801000A2003E0032093
:104830008DF80100142000F0FFFA9DF801006B468E
:1048400007EB80108DF8010020680222817C6068EF
:104850000078FDF72EFD10B14846BDE8F88308202A
:10486000A072267384F814800020FFF7DDFC00207E
:10487000F3E70000000000202DE9F843214C064634
:10488000174694F8240089464FF0FF3890B3A07A79
:1048900080B320686B460222817A60680078FDF759
:1048A0007BFC38BBBDF8000045BAB54202D20020FF
:1048B00038701FE060684188B5EB510F11D921684D
:1048C00000786B46497C0122FDF766FC90B99DF8A3
:1048D0000000C00605D500F041F86FF00100BDE80A
:1048E000F8832068F2B24B46C17A60680078FDF721
:1048F00053FC08B14046F2E7B5FBF6F0401E3870B5
:104900000020ECE700000020F8B516000D464FF03F
:10491000FF371FD0104CA17AE1B1010A8DF80010C9
:10492000C0B28DF80100411960684289914211D8E6
:10493000216800786B46097E0222FDF7BAFC48B96F
:104940002068EAB23346417D60680078FDF724FCB8
:10495000002800D03846F8BD00000020F8B5564CBD
:104960004FF0FF36A07A00287DD000258DF800504A
:1049700020686B460122C17B60680078FDF799FCD6
:10498000002870D120686B46012241796068007868
:10499000FDF78FFC002866D120686B460122017963
:1049A00060680078FDF785FC00285CD194F824004D
:1049B000E0B30C208DF8000020686B4601220179DD
:1049C00060680078FDF775FC002872D13220FBF793
:1049D00039FEC0208DF80000A07AC00702D0E02088
:1049E0008DF8000020686B4601220179606800782C
:1049F000FDF75FFC00285CD1607C18B102208DF8C7
:104A0000000001E08DF8005020686B460122C17B58
:104A100060680078FDF74DFC28BB8DF800502068D9
:104A20006B4601224179606800783EE0FFE7042090
:104A30008DF8000020686B460122017960680078DB
:104A4000FDF737FC78B9A07C90B9A07AC0070FD0E9
:104A50005FF060008DF8000020686B46012201794C
:104A60006068007800E024E0FDF723FC08BB01E06B
:104A70004020EFE73220FBF7E5FD607C18B1012014
:104A80008DF8000001E08DF8005020686B4601228F
:104A9000C17B60680078FDF70CFC50B92068064BBC
:104AA00001224179606810330078FDF702FC00288C
:104AB00000D03046F8BD0000000000202DE9F0478E
:104AC000394C82468AB094F824000F4620B1002069
:104AD00000F00EF9012600E0002607A8FFF72AFDE6
:104AE00006A8FFF7E7FC09A8FFF75EFD08A8FFF797
:104AF00077FD94F80A9094F810800025002239463A
:104B00005046FFF723F910B16D1C022DF6DB022D84
:104B10001AD00025012203A96846FFF717F910B142
:104B20006D1C022DF6DB022D0ED003A93846FEF7D0
:104B3000B7F8C7B269465046FFF792FA10F0FF0F78
:104B40004FF0000502D002E0002503E001250FB977
:104B500045F00205FF2020726072E0724FF6FF718F
:104B6000E181A072207401202073BDF81C0000F0C8
:104B7000FBF89DF8180000F019F8BDF8240000F0CB
:104B80005BF9BDF8200000F08DF9484600F0CAF945
:104B90004046FFF749FB16B1012000F0A9F80AB022
:104BA0002846BDE8F08700000000002038B5184C0A
:104BB0004FF0FF35A17A19B3022806D0042806D099
:104BC00008280ED010281BD10DE0002000E008209E
:104BD0008DF80000607A9DF80010B0EBD10F04D082
:104BE00005E01020F4E71820F2E7002038BD206827
:104BF0006B460122C17960680078FDF75AFB08B165
:104C0000284638BD9DF80000C0086072EDE700003E
:104C100000000020F8B5354C0546A07CA84201D123
:104C20000020F8BD31484FF0FF366B46D0E9001048
:104C30004FF001020979007835B3FDF7ADFA70BB8A
:104C40009DF800006B4620F020008DF800002068E1
:104C50000122017960680078FDF72BFBF8B9032089
:104C6000FBF7F0FC02208DF8000094F8220078B3E6
:104C700082202BE020686B460122017D606800786D
:104C8000FDF717FB58B92EE0FDF786FA38B9A07A80
:104C9000C0079DF8000003D040F0200002E00CE0C7
:104CA00020F020008DF8000020686B460122017979
:104CB00060680078FDF7FDFA08B13046F8BD0320C2
:104CC000FBF7C0FC94F8220000B180208DF80000B2
:104CD00094F823000028CDD09DF8000040F030006B
:104CE0008DF80000C6E7A5749AE7000000000020D8
:104CF00038B51C4C94F8241081421DD0002500B317
:104D000094F82500D0B1002000F0D2F90020FFF780
:104D100081FFE08C00F0C6F88DF8005060686B46AB
:104D2000012200782321FDF7C4FA012084F8240031
:104D300000F0BEF9FFF712FE002038BD4FF0FF3043
:104D400038BD002000F0B4F9207C8DF800006068C8
:104D50006B46012200782321FDF7ABFA84F824503A
:104D6000E8E700000000002038B5194C4FF0FF358F
:104D7000A17A31B3FA2809D0B0F5FA7F08D0B0F59E
:104D80007A7F0FD0B0F5FA6F1BD10DE0002000E064
:104D900008208DF80000207A9DF80010B0EBD10FAC
:104DA00004D005E01020F4E71820F2E7002038BD19
:104DB00020686B460122817960680078FDF779FAF6
:104DC00008B1284638BD9DF80000C0082072EDE704
:104DD0000000002038B5174C054694F82300A8427F
:104DE00001D1002038BD0DB1302000E000208DF849
:104DF0000000A07C28B19DF8000040F002008DF872
:104E0000000094F8220028B19DF8000040F08000D6
:104E10008DF8000020686B460122017D60680078F3
:104E2000FDF747FA10B14FF0FF3038BD84F823503A
:104E3000D7E700000000002038B5194C4FF0FF35CF
:104E4000A17A31B3BC2801D3012010E0622801D33C
:104E500002200CE02A2801D3032008E0142801D303
:104E6000042004E00A2801D3052000E006208DF884
:104E70000000E07A9DF80010884201D1002038BD82
:104E800020686B460122817860680078FDF711FA8E
:104E900008B1284638BD9DF80000E072EEE700003A
:104EA00000000020F8B51E4D04464FF0FF37A87AE9
:104EB00048B395F8240030BB287D4FF47A7648B18A
:104EC00064B1282C03D8E0B2FFF77AFC26E000207A
:104ED000FFF776FC042C05D2042406E00020FFF73F
:104EE0006FFCF9E7B44200D93446B6FBF4F0401E3B
:104EF0008DF8000028686B460122417868680078C8
:104F0000FDF7D7F908B13846F8BD9DF80000401C00
:104F1000B6FBF0F0E8814008FFF78EFF0020F8BDF7
:104F200000000020F8B5054610F0700F4FF00006A5
:104F300001D0012004E015B18DF8006002E04020AE
:104F40008DF80000244C6B4601222068817C60684B
:104F50000078FDF7AEF94FF0FF3760BB9DF8000019
:104F600020F0400020738DF80060680602D4042011
:104F70008DF80000A80605D49DF8000040F002005E
:104F80008DF80000E80605D49DF8000040F001000F
:104F90008DF80000280705D49DF8000040F0380087
:104FA0008DF8000020686B460122C17C60680078A3
:104FB000FDF77FF910B1A6723846F8BD25B1082D6E
:104FC00002D00020FFF706FFA57226753220FBF7FE
:104FD00039FB0020F8BD000000000020F8B51600E5
:104FE0000D464FF0FF371FD0104CA17AE1B1010AF6
:104FF0008DF80010C0B28DF8010041196068428937
:10500000914211D8216800786B46097E0222FDF793
:1050100050F948B92068EAB23346417D60680078AB
:10502000FDF747F9002800D03846F8BD0000002001
:1050300010B588B0694604A8FFF740FD032802D0E8
:10504000012008B010BD07A8FFF78EFA049800F001
:10505000C9FF07990C4600F0F1FF00F087FF0490AC
:10506000059800F0BFFF214600F0E8FF00F07EFF4A
:105070000590069800F0B6FF214600F0DFFF00F033
:1050800075FF069004A8FEF701FC03A8FFF730FAAD
:10509000BDF80C00009941430091019941430191F1
:1050A0000299414368460291FEF752FB0020C8E78F
:1050B000F8B5144C0146224694F82460D2E9000267
:1050C00000235D1E56B179B1022111E0C17B107839
:1050D0006B460122FDF7EDF868B90EE0A67A56B1ED
:1050E00011B1617C61B902E08DF80030EEE7012179
:1050F0008DF80010EAE72846F8BD9DF800006074BE
:105100000020F8BD000000202DE9F04106460F46C2
:1051100000F006FC041E0D4618BF0120284320F0B5
:105120000040C0F17F6000F1E040C00F0ED0301CA5
:1051300018BF0120384320F00040C0F17F6000F12B
:10514000E040C00F04BF0120FBF73CF92046294690
:10515000BDE8F08121F00042A2F16052B2F5801F5B
:1051600001F0004328BFD2F17F6C0BD95FEA001C2D
:1051700043EAC20242EB507018BF704728BF20F0CC
:1051800001007047B2F5801FBCBF184670474FEA58
:10519000410C1CF5001F02D2084601F016B870B58C
:1051A00000F05EFB00000089FFF7F6BF4FF0004003
:1051B000A0F580007047000010B591EA030F48BFCA
:1051C00083F0004300F19A84841A71EB030C05D23A
:1051D000121943EB0C03001B61EB0C01DFF824E117
:1051E0004FEA1154A4EB135C1EEA430F18BF9EEA6A
:1051F000445F73D023EA0E03DCF1200E21EA045150
:1052000043F4801332D322FA0CFE10EB0E0023FA83
:105210000CFE41EB0E01CCF1200E03FA0EFE10EB5A
:105220000E0051F10001B1F5801FCCF1200E32D2F9
:1052300001EB045112FA0EF2BDE8104058BF70475E
:10524000401C38BF5FEA420218BF7047002814BFF5
:1052500020F0010041F100014FEA410313F5001F66
:1052600038BF7047A1F1C04100F048BB012A43EBB1
:105270000302ACF1200CDCF11F0E32BF4FF0000E28
:1052800023FA0CF310EB030041EB0451B4EB115F74
:10529000D0D0A1EB045101F5801149085FEA30003C
:1052A00001EB04510ED350F1000038BF12FA0EFE8C
:1052B00008D1BDE81040C9E7401C38BF5FEA420290
:1052C000CAD1C3E7BDE810404FEA410313F5001F00
:1052D00038BF7047A1F1C04100F010BB9EEA445FA7
:1052E00008D011EA5E0FBDE8104004BF01F0004194
:1052F00000207047BDE8104070B500F0B1FA00BF63
:1053000064FBBE3E0000E0FF02494FF0000000F0E9
:10531000D6BF00BF0000F87F491058BFC1F140411F
:105320005B1058BFC3F140438B42EFF300807047DE
:105330002DE9C04130B4DFF8A0C23CEA111418BF17
:105340003CEA131400F0EC8081EA03051CEA111416
:1053500044EAD57418BF1CEA131500F0C780A4EB0B
:1053600005044FF0004545EAC12145EAC32341EA5F
:10537000505143EA525304F17F74994204F50034CA
:105380004FEAC0204FEAC22208BF904200F09C8042
:105390004FEA13650FF24016765D4FEA134506FBA0
:1053A00005F7C7F1807706FB07F74FEAD737A7FB6A
:1053B00003687642C8F58038A7FB06CE38BFA8F14F
:1053C000010807FB08E64FF0000EA6FB028CE6FB87
:1053D00003CEDCF1000CCEF1004E38BFAEF1010E71
:1053E000A6FB0C584FF000074FF00005E6FB0E87B8
:1053F000A1FB08C6A0FB07CE16EB0E0645F1000583
:10540000E1FB076515F1E04E7EBFA4F580345FEA4D
:1054100046066D4116F1800745F100054FEA172752
:105420004FEA066647EA0567A6F1DE46B6F1805FF9
:105430004FEA15251FD9384624F0010C05EBC4713D
:10544000BCF1FE6F01EB0C1102D8F0BCBDE800818D
:1054500024425CBF01F5801E9EEAC47F02D4F0BCEA
:10546000BDE80081244238D4F0BCA1F1C041BDE8C0
:10547000004100F043BA4FEAD22242EA43524FEAD7
:10548000D323A7FB02864FEAD02040EA415007FB16
:1054900003661EEA0E0F4FEAD12105FB026658BFD4
:1054A000A6EB0056B6EB00564FEA520E4EEAC37E0C
:1054B00018EB0E0E56EB530EBDD518EB02085E41ED
:1054C0007F1C55F10005B6E74FF480154FF000073B
:1054D0004FF000064FF00008ADE7F0BC4FF00000C1
:1054E00001F1C04101F00041BDE8008111EA0C1F4B
:1054F0000CEA131500D00CE013EA0C1F00F0258015
:105500004FF00000F0BC81EA030101F00041BDE86A
:105510000081F0BCBDE8004181EA030100F0EEB972
:10552000F0BCBDE8004170B500F09AF9097EFC3E80
:1055300000F007B881EA03014FF0000001F00041DC
:10554000704781EA030100F0D9B9F0BCBDE8004121
:105550004FF0000021497047FFFDFBF9F7F5F4F229
:10556000F0EEEDEBE9E8E6E4E3E1E0DEDDDBDAD8FE
:10557000D7D5D4D3D1D0CFCDCCCBCAC8C7C6C5C45C
:10558000C2C1C0BFBEBDBCBBBAB9B8B7B6B5B4B373
:10559000B2B1B0AFAEADACABAAA9A8A8A7A6A5A45E
:1055A000A3A3A2A1A09F9F9E9D9C9C9B9A99999822
:1055B0009797969595949393929191908F8F8E8EC5
:1055C0008D8C8C8B8B8A8989888887878685858452
:1055D00084838382828181800000FF070000F87F3E
:1055E00051EA030C17D41CF5801F58BFBCF5801F6F
:1055F00000F10680994218BF704708BF904270477B
:1056000007D711F5801F58BF13F5801F19D4994291
:105610007047894270471CF5801F08D5BCF5801F74
:10562000F7D58B4218BF704708BF824270474FF4CE
:10563000001C1CEB410F38BF1CEB430F01D28B4207
:10564000704770B500F00CF9922449004FF00051FA
:105650004FF08053FFF760BE4FEA41034FEA5353C8
:10566000A3F58063D3F11E03C8BFD3F1210C0CDD79
:105670004FF0004242EAC12242EA505232FA03FCA1
:105680008CEAE17CACEBE1707047102BC4BF0020CA
:10569000704703F5787CBCF1FF3F04D06FF0004207
:1056A00082EA2100704770B500F0DAF84992248050
:1056B00000207047F2E710F0004248BF4042B0FAC5
:1056C00080F310FA03F10AD0C3F11D0303F58063E0
:1056D0004FEA415002EB035202EBD12170474FF0E9
:1056E00000007047B0FA80F310FA03F10AD0C3F15A
:1056F0001D0303F580634FEA41504FEA035202EB6A
:10570000D12170474FF0000070470000DFF848C11A
:1057100070B51CEA111E1EBF1CEA13159EEA0C0F81
:1057200095EA0C0F00F06F8081EA030423EA4C1322
:105730004EEAD47E21EA4C1141F4801143F48013E7
:10574000AE44A1FB024CA0FB0365AEF17F7E36198F
:1057500055EB0C05A1FB034C4CF10003A0FB021C14
:1057600016EB0C06654153F10003094218BF46F0E1
:10577000010613F4007F0BD14FEA03314FEA0530E5
:10578000340341EA155140EA16506FF003020AE073
:105790004FEAC3214FEAC520F40241EA555140EADD
:1057A00056506FF0020202EB2E4201EB025585EAE1
:1057B000CE710AD05FEA440C18BF24F0004450F1C7
:1057C000000041F1000120EAD47040F2FE7C624505
:1057D00000D270BDA84214BF4FF080444FF0404447
:1057E000002E08BF0024BEF1806FA8BFA1F1C04108
:1057F000BDE8704080F282804FF0000001F1C041AE
:1058000001F0004170479EEA0C0F0CEA131518BF17
:1058100095EA0C0F06D04FF0000081EA030E0EF05F
:10582000004170BD00F01CF88900013E00F007B88F
:1058300000F009B84FEA430C5FEA5C5C08D081EAEB
:10584000030100F05BB84FEA410C5FEA5C5CF6D103
:105850004FF00000014970470000FF070000F87F8B
:105860000EF1020E2EF0030E5EF8046B364205D4E4
:10587000012A43EB030515F5001F12D8012841EB5F
:10588000010C1CF5001F0CD80ED14FEAD17C15F588
:10589000001F0CEB4C0C0CF1020C08BF4CEBD37C42
:1058A00004E04FF0080C01E04FEAD37C0CEB4C0510
:1058B00026FA05F606F00706B6F1040C06D20EEB42
:1058C000860CBDE870404CF0010C6047DFE80CF03E
:1058D000090B02024FF000414FF00000A1F500213A
:1058E00070BD19461046012851EB010418BFD4F5CC
:1058F000001484BF002001F0004170BD0808A0F52D
:1059000000114FEA3101704791EA030F10B581F0A1
:1059100000413FF559AC83F0004300F0EFB80000C0
:105920002DE9F04101F5801CBCF5001FC0F2C380D9
:105930004FEA115C21EA0C510CF1FD0C41F480118D
:105940005FEA5C0C0CF5C07C01D3400049413DA4EA
:10595000890241EA905187028E0E0A0CA45D04FB75
:1059600004F602FB06F6C6F14046A4FB0662F60DFD
:1059700046EA422606FB06F4A4FB01235242C3F189
:10598000404338BF5B1EA6FB02420024E6FB032413
:10599000D20B42EA4446A6FB0623A1FB02E2A3FB8C
:1059A00007E4A4184FF0000252F10002E3FB0142A9
:1059B0006442C2F1404E38BFAEF1010EA6FB042393
:1059C0004FF00002E6FB0E32A2FB03464FF000044C
:1059D000B61954F10004E2FB0264A1FB06E6A4FB45
:1059E00007E816EB08064FF0000858F10008E4FB42
:1059F00001687642C8F1405838BFA8F10108A2FBFF
:105A000006E4A3FB08E52D194FF0000454F100044F
:105A1000E2FB0854A1FB05E6A7FB04E818EB060827
:105A20004FF0000656F10006E1FB048618F1200550
:105A300056F10006A809A8F11B08B10908F03F08B3
:105A4000B8F10A0F40EA86601CD901EB0C51BDE8A1
:105A5000F08100BFFCF5EEE8E2DDD8D3CFCBC7C3C1
:105A6000C0BDB9B6B4B1AEACA9A7A5A3A19F9D9B7B
:105A70009A9896959392908F8D8C8B89888786853E
:105A800084838281A0FB006800FB01F208EB4208DE
:105A9000B8EB872807D5341858EB0104D5D5401C3E
:105AA00051F10001D1E7341A78EB0104CDD4401E46
:105AB00071F10001C9E75FEA4C0C5FEA9C5C0DD113
:105AC00005D34FF0000001F00041BDE8F081BDE8D2
:105AD000F04170B5FFF7C4FE6DDBFFBEBDE8F041DD
